{
  "_format": "hh-sol-artifact-1",
  "contractName": "LetapayV2",
  "sourceName": "contracts/LetapayV2.sol",
  "abi": [
    {
      "inputs": [],
      "stateMutability": "nonpayable",
      "type": "constructor"
    },
    {
      "anonymous": false,
      "inputs": [
        {
          "indexed": false,
          "internalType": "string",
          "name": "paymentId",
          "type": "string"
        },
        {
          "indexed": false,
          "internalType": "address",
          "name": "senderAddress",
          "type": "address"
        },
        {
          "indexed": false,
          "internalType": "address",
          "name": "recieverAddress",
          "type": "address"
        },
        {
          "indexed": false,
          "internalType": "uint256",
          "name": "amount",
          "type": "uint256"
        }
      ],
      "name": "PaymentAdded",
      "type": "event"
    },
    {
      "anonymous": false,
      "inputs": [
        {
          "indexed": false,
          "internalType": "string",
          "name": "paymentId",
          "type": "string"
        },
        {
          "indexed": false,
          "internalType": "address",
          "name": "senderAddress",
          "type": "address"
        },
        {
          "indexed": false,
          "internalType": "address",
          "name": "recieverAddress",
          "type": "address"
        },
        {
          "indexed": false,
          "internalType": "uint256",
          "name": "amount",
          "type": "uint256"
        }
      ],
      "name": "PaymentCompleted",
      "type": "event"
    },
    {
      "inputs": [
        {
          "internalType": "string",
          "name": "paymentId",
          "type": "string"
        },
        {
          "internalType": "address",
          "name": "recieverAddress",
          "type": "address"
        },
        {
          "internalType": "uint256",
          "name": "amount",
          "type": "uint256"
        }
      ],
      "name": "addPayment",
      "outputs": [],
      "stateMutability": "nonpayable",
      "type": "function"
    },
    {
      "inputs": [
        {
          "internalType": "string",
          "name": "paymentId",
          "type": "string"
        }
      ],
      "name": "completePayment",
      "outputs": [],
      "stateMutability": "nonpayable",
      "type": "function"
    },
    {
      "inputs": [
        {
          "internalType": "string",
          "name": "paymentId",
          "type": "string"
        }
      ],
      "name": "getPayment",
      "outputs": [
        {
          "components": [
            {
              "internalType": "string",
              "name": "paymentId",
              "type": "string"
            },
            {
              "internalType": "uint256",
              "name": "amount",
              "type": "uint256"
            },
            {
              "internalType": "enum LetapayV2.Status",
              "name": "status",
              "type": "uint8"
            },
            {
              "internalType": "address",
              "name": "senderAddress",
              "type": "address"
            },
            {
              "internalType": "address",
              "name": "recieverAddress",
              "type": "address"
            }
          ],
          "internalType": "struct LetapayV2.Payment",
          "name": "",
          "type": "tuple"
        }
      ],
      "stateMutability": "view",
      "type": "function"
    },
    {
      "inputs": [],
      "name": "name",
      "outputs": [
        {
          "internalType": "string",
          "name": "",
          "type": "string"
        }
      ],
      "stateMutability": "view",
      "type": "function"
    },
    {
      "inputs": [],
      "name": "owner",
      "outputs": [
        {
          "internalType": "address",
          "name": "",
          "type": "address"
        }
      ],
      "stateMutability": "view",
      "type": "function"
    },
    {
      "inputs": [
        {
          "internalType": "string",
          "name": "",
          "type": "string"
        }
      ],
      "name": "payments",
      "outputs": [
        {
          "internalType": "string",
          "name": "paymentId",
          "type": "string"
        },
        {
          "internalType": "uint256",
          "name": "amount",
          "type": "uint256"
        },
        {
          "internalType": "enum LetapayV2.Status",
          "name": "status",
          "type": "uint8"
        },
        {
          "internalType": "address",
          "name": "senderAddress",
          "type": "address"
        },
        {
          "internalType": "address",
          "name": "recieverAddress",
          "type": "address"
        }
      ],
      "stateMutability": "view",
      "type": "function"
    }
  ],
  "bytecode": "0x60806040526040518060400160405280600781526020017f4c65746170617900000000000000000000000000000000000000000000000000815250600090816200004a91906200036f565b5073874069fa1eb16d44d622f2e0ca25eea172369bc1600260006101000a81548173ffffffffffffffffffffffffffffffffffffffff021916908373ffffffffffffffffffffffffffffffffffffffff160217905550348015620000ad57600080fd5b5033600160006101000a81548173ffffffffffffffffffffffffffffffffffffffff021916908373ffffffffffffffffffffffffffffffffffffffff16021790555062000456565b600081519050919050565b7f4e487b7100000000000000000000000000000000000000000000000000000000600052604160045260246000fd5b7f4e487b7100000000000000000000000000000000000000000000000000000000600052602260045260246000fd5b600060028204905060018216806200017757607f821691505b6020821081036200018d576200018c6200012f565b5b50919050565b60008190508160005260206000209050919050565b60006020601f8301049050919050565b600082821b905092915050565b600060088302620001f77fffffffffffffffffffffffffffffffffffffffffffffffffffffffffffffffff82620001b8565b620002038683620001b8565b95508019841693508086168417925050509392505050565b6000819050919050565b6000819050919050565b6000620002506200024a62000244846200021b565b62000225565b6200021b565b9050919050565b6000819050919050565b6200026c836200022f565b620002846200027b8262000257565b848454620001c5565b825550505050565b600090565b6200029b6200028c565b620002a881848462000261565b505050565b5b81811015620002d057620002c460008262000291565b600181019050620002ae565b5050565b601f8211156200031f57620002e98162000193565b620002f484620001a8565b8101602085101562000304578190505b6200031c6200031385620001a8565b830182620002ad565b50505b505050565b600082821c905092915050565b6000620003446000198460080262000324565b1980831691505092915050565b60006200035f838362000331565b9150826002028217905092915050565b6200037a82620000f5565b67ffffffffffffffff81111562000396576200039562000100565b5b620003a282546200015e565b620003af828285620002d4565b600060209050601f831160018114620003e75760008415620003d2578287015190505b620003de858262000351565b8655506200044e565b601f198416620003f78662000193565b60005b828110156200042157848901518255600182019150602085019450602081019050620003fa565b868310156200044157848901516200043d601f89168262000331565b8355505b6001600288020188555050505b505050505050565b61178980620004666000396000f3fe608060405234801561001057600080fd5b50600436106100625760003560e01c806306fdde03146100675780636f6614c0146100855780638da5cb5b146100a1578063b6b89528146100bf578063c69207a3146100db578063f94687131461010b575b600080fd5b61006f61013f565b60405161007c9190610cb1565b60405180910390f35b61009f600480360381019061009a9190610eb0565b6101cd565b005b6100a961045b565b6040516100b69190610f2e565b60405180910390f35b6100d960048036038101906100d49190610f49565b610481565b005b6100f560048036038101906100f09190610f49565b6108d8565b60405161010291906110e7565b60405180910390f35b61012560048036038101906101209190610f49565b610a93565b604051610136959493929190611127565b60405180910390f35b6000805461014c906111b0565b80601f0160208091040260200160405190810160405280929190818152602001828054610178906111b0565b80156101c55780601f1061019a576101008083540402835291602001916101c5565b820191906000526020600020905b8154815290600101906020018083116101a857829003601f168201915b505050505081565b60006040518060a00160405280858152602001838152602001600060018111156101fa576101f9610feb565b5b81526020013373ffffffffffffffffffffffffffffffffffffffff1681526020018473ffffffffffffffffffffffffffffffffffffffff16815250905080600385604051610248919061121d565b9081526020016040518091039020600082015181600001908161026b91906113e0565b506020820151816001015560408201518160020160006101000a81548160ff021916908360018111156102a1576102a0610feb565b5b021790555060608201518160020160016101000a81548173ffffffffffffffffffffffffffffffffffffffff021916908373ffffffffffffffffffffffffffffffffffffffff16021790555060808201518160030160006101000a81548173ffffffffffffffffffffffffffffffffffffffff021916908373ffffffffffffffffffffffffffffffffffffffff160217905550905050600260009054906101000a900473ffffffffffffffffffffffffffffffffffffffff1673ffffffffffffffffffffffffffffffffffffffff166323b872dd3330856040518463ffffffff1660e01b8152600401610396939291906114b2565b6020604051808303816000875af11580156103b5573d6000803e3d6000fd5b505050506040513d601f19601f820116820180604052508101906103d99190611521565b610418576040517f08c379a000000000000000000000000000000000000000000000000000000000815260040161040f9061159a565b60405180910390fd5b7fdb627f6e9a55a819d8eac28544d56354512521c9ce727dce07eefb9752241b878433858560405161044d94939291906115ba565b60405180910390a150505050565b600160009054906101000a900473ffffffffffffffffffffffffffffffffffffffff1681565b600160009054906101000a900473ffffffffffffffffffffffffffffffffffffffff1673ffffffffffffffffffffffffffffffffffffffff163373ffffffffffffffffffffffffffffffffffffffff1614610511576040517f08c379a000000000000000000000000000000000000000000000000000000000815260040161050890611678565b60405180910390fd5b6000600181111561052557610524610feb565b5b600382604051610535919061121d565b908152602001604051809103902060020160009054906101000a900460ff16600181111561056657610565610feb565b5b146105a6576040517f08c379a000000000000000000000000000000000000000000000000000000000815260040161059d9061170a565b60405180910390fd5b600260009054906101000a900473ffffffffffffffffffffffffffffffffffffffff1673ffffffffffffffffffffffffffffffffffffffff1663095ea7b3306003846040516105f5919061121d565b9081526020016040518091039020600101546040518363ffffffff1660e01b815260040161062492919061172a565b6020604051808303816000875af1158015610643573d6000803e3d6000fd5b505050506040513d601f19601f820116820180604052508101906106679190611521565b50600260009054906101000a900473ffffffffffffffffffffffffffffffffffffffff1673ffffffffffffffffffffffffffffffffffffffff166323b872dd306003846040516106b7919061121d565b908152602001604051809103902060030160009054906101000a900473ffffffffffffffffffffffffffffffffffffffff166003856040516106f9919061121d565b9081526020016040518091039020600101546040518463ffffffff1660e01b8152600401610729939291906114b2565b6020604051808303816000875af1158015610748573d6000803e3d6000fd5b505050506040513d601f19601f8201168201806040525081019061076c9190611521565b6107ab576040517f08c379a00000000000000000000000000000000000000000000000000000000081526004016107a29061159a565b60405180910390fd5b60016003826040516107bd919061121d565b908152602001604051809103902060020160006101000a81548160ff021916908360018111156107f0576107ef610feb565b5b02179055507f34ddb4977c7a6a68d953dc3ba5fd644201e8a9393f14165b9337c4b21841818d81600383604051610827919061121d565b908152602001604051809103902060020160019054906101000a900473ffffffffffffffffffffffffffffffffffffffff16600384604051610869919061121d565b908152602001604051809103902060030160009054906101000a900473ffffffffffffffffffffffffffffffffffffffff166003856040516108ab919061121d565b9081526020016040518091039020600101546040516108cd94939291906115ba565b60405180910390a150565b6108e0610bb4565b6003826040516108f0919061121d565b90815260200160405180910390206040518060a0016040529081600082018054610919906111b0565b80601f0160208091040260200160405190810160405280929190818152602001828054610945906111b0565b80156109925780601f1061096757610100808354040283529160200191610992565b820191906000526020600020905b81548152906001019060200180831161097557829003601f168201915b50505050508152602001600182015481526020016002820160009054906101000a900460ff1660018111156109ca576109c9610feb565b5b60018111156109dc576109db610feb565b5b81526020016002820160019054906101000a900473ffffffffffffffffffffffffffffffffffffffff1673ffffffffffffffffffffffffffffffffffffffff1673ffffffffffffffffffffffffffffffffffffffff1681526020016003820160009054906101000a900473ffffffffffffffffffffffffffffffffffffffff1673ffffffffffffffffffffffffffffffffffffffff1673ffffffffffffffffffffffffffffffffffffffff16815250509050919050565b600381805160208101820180518482526020830160208501208183528095505050505050600091509050806000018054610acc906111b0565b80601f0160208091040260200160405190810160405280929190818152602001828054610af8906111b0565b8015610b455780601f10610b1a57610100808354040283529160200191610b45565b820191906000526020600020905b815481529060010190602001808311610b2857829003601f168201915b5050505050908060010154908060020160009054906101000a900460ff16908060020160019054906101000a900473ffffffffffffffffffffffffffffffffffffffff16908060030160009054906101000a900473ffffffffffffffffffffffffffffffffffffffff16905085565b6040518060a00160405280606081526020016000815260200160006001811115610be157610be0610feb565b5b8152602001600073ffffffffffffffffffffffffffffffffffffffff168152602001600073ffffffffffffffffffffffffffffffffffffffff1681525090565b600081519050919050565b600082825260208201905092915050565b60005b83811015610c5b578082015181840152602081019050610c40565b60008484015250505050565b6000601f19601f8301169050919050565b6000610c8382610c21565b610c8d8185610c2c565b9350610c9d818560208601610c3d565b610ca681610c67565b840191505092915050565b60006020820190508181036000830152610ccb8184610c78565b905092915050565b6000604051905090565b600080fd5b600080fd5b600080fd5b600080fd5b7f4e487b7100000000000000000000000000000000000000000000000000000000600052604160045260246000fd5b610d2982610c67565b810181811067ffffffffffffffff82111715610d4857610d47610cf1565b5b80604052505050565b6000610d5b610cd3565b9050610d678282610d20565b919050565b600067ffffffffffffffff821115610d8757610d86610cf1565b5b610d9082610c67565b9050602081019050919050565b82818337600083830152505050565b6000610dbf610dba84610d6c565b610d51565b905082815260208101848484011115610ddb57610dda610cec565b5b610de6848285610d9d565b509392505050565b600082601f830112610e0357610e02610ce7565b5b8135610e13848260208601610dac565b91505092915050565b600073ffffffffffffffffffffffffffffffffffffffff82169050919050565b6000610e4782610e1c565b9050919050565b610e5781610e3c565b8114610e6257600080fd5b50565b600081359050610e7481610e4e565b92915050565b6000819050919050565b610e8d81610e7a565b8114610e9857600080fd5b50565b600081359050610eaa81610e84565b92915050565b600080600060608486031215610ec957610ec8610cdd565b5b600084013567ffffffffffffffff811115610ee757610ee6610ce2565b5b610ef386828701610dee565b9350506020610f0486828701610e65565b9250506040610f1586828701610e9b565b9150509250925092565b610f2881610e3c565b82525050565b6000602082019050610f436000830184610f1f565b92915050565b600060208284031215610f5f57610f5e610cdd565b5b600082013567ffffffffffffffff811115610f7d57610f7c610ce2565b5b610f8984828501610dee565b91505092915050565b600082825260208201905092915050565b6000610fae82610c21565b610fb88185610f92565b9350610fc8818560208601610c3d565b610fd181610c67565b840191505092915050565b610fe581610e7a565b82525050565b7f4e487b7100000000000000000000000000000000000000000000000000000000600052602160045260246000fd5b6002811061102b5761102a610feb565b5b50565b600081905061103c8261101a565b919050565b600061104c8261102e565b9050919050565b61105c81611041565b82525050565b61106b81610e3c565b82525050565b600060a083016000830151848203600086015261108e8282610fa3565b91505060208301516110a36020860182610fdc565b5060408301516110b66040860182611053565b5060608301516110c96060860182611062565b5060808301516110dc6080860182611062565b508091505092915050565b600060208201905081810360008301526111018184611071565b905092915050565b61111281610e7a565b82525050565b61112181611041565b82525050565b600060a08201905081810360008301526111418188610c78565b90506111506020830187611109565b61115d6040830186611118565b61116a6060830185610f1f565b6111776080830184610f1f565b9695505050505050565b7f4e487b7100000000000000000000000000000000000000000000000000000000600052602260045260246000fd5b600060028204905060018216806111c857607f821691505b6020821081036111db576111da611181565b5b50919050565b600081905092915050565b60006111f782610c21565b61120181856111e1565b9350611211818560208601610c3d565b80840191505092915050565b600061122982846111ec565b915081905092915050565b60008190508160005260206000209050919050565b60006020601f8301049050919050565b600082821b905092915050565b6000600883026112967fffffffffffffffffffffffffffffffffffffffffffffffffffffffffffffffff82611259565b6112a08683611259565b95508019841693508086168417925050509392505050565b6000819050919050565b60006112dd6112d86112d384610e7a565b6112b8565b610e7a565b9050919050565b6000819050919050565b6112f7836112c2565b61130b611303826112e4565b848454611266565b825550505050565b600090565b611320611313565b61132b8184846112ee565b505050565b5b8181101561134f57611344600082611318565b600181019050611331565b5050565b601f8211156113945761136581611234565b61136e84611249565b8101602085101561137d578190505b61139161138985611249565b830182611330565b50505b505050565b600082821c905092915050565b60006113b760001984600802611399565b1980831691505092915050565b60006113d083836113a6565b9150826002028217905092915050565b6113e982610c21565b67ffffffffffffffff81111561140257611401610cf1565b5b61140c82546111b0565b611417828285611353565b600060209050601f83116001811461144a5760008415611438578287015190505b61144285826113c4565b8655506114aa565b601f19841661145886611234565b60005b828110156114805784890151825560018201915060208501945060208101905061145b565b8683101561149d5784890151611499601f8916826113a6565b8355505b6001600288020188555050505b505050505050565b60006060820190506114c76000830186610f1f565b6114d46020830185610f1f565b6114e16040830184611109565b949350505050565b60008115159050919050565b6114fe816114e9565b811461150957600080fd5b50565b60008151905061151b816114f5565b92915050565b60006020828403121561153757611536610cdd565b5b60006115458482850161150c565b91505092915050565b7f5472616e73666572206661696c65640000000000000000000000000000000000600082015250565b6000611584600f83610c2c565b915061158f8261154e565b602082019050919050565b600060208201905081810360008301526115b381611577565b9050919050565b600060808201905081810360008301526115d48187610c78565b90506115e36020830186610f1f565b6115f06040830185610f1f565b6115fd6060830184611109565b95945050505050565b7f4f6e6c7920636f6e7472616374206f776e65722063616e206d616b652074686960008201527f73207472616e73616374696f6e00000000000000000000000000000000000000602082015250565b6000611662602d83610c2c565b915061166d82611606565b604082019050919050565b6000602082019050818103600083015261169181611655565b9050919050565b7f5061796d656e74206d757374206265206177616974696e67207061796d656e7460008201527f2073746174757300000000000000000000000000000000000000000000000000602082015250565b60006116f4602783610c2c565b91506116ff82611698565b604082019050919050565b60006020820190508181036000830152611723816116e7565b9050919050565b600060408201905061173f6000830185610f1f565b61174c6020830184611109565b939250505056fea26469706673582212208303683e508e47db6f68b8dbcd266406f461ca6a13c759c843dee366f6a03ee564736f6c63430008180033",
  "linkReferences": {},
  "deployedLinkReferences": {}
}