{
  "_format": "hh-sol-artifact-1",
  "contractName": "Letapay",
  "sourceName": "contracts/Letapay.sol",
  "abi": [
    {
      "inputs": [],
      "stateMutability": "nonpayable",
      "type": "constructor"
    },
    {
      "anonymous": false,
      "inputs": [
        {
          "indexed": false,
          "internalType": "string",
          "name": "paymentId",
          "type": "string"
        },
        {
          "indexed": false,
          "internalType": "address",
          "name": "senderAddress",
          "type": "address"
        },
        {
          "indexed": false,
          "internalType": "address",
          "name": "recieverAddress",
          "type": "address"
        },
        {
          "indexed": false,
          "internalType": "uint256",
          "name": "amount",
          "type": "uint256"
        }
      ],
      "name": "PaymentAdded",
      "type": "event"
    },
    {
      "anonymous": false,
      "inputs": [
        {
          "indexed": false,
          "internalType": "string",
          "name": "paymentId",
          "type": "string"
        },
        {
          "indexed": false,
          "internalType": "address",
          "name": "senderAddress",
          "type": "address"
        },
        {
          "indexed": false,
          "internalType": "address",
          "name": "recieverAddress",
          "type": "address"
        },
        {
          "indexed": false,
          "internalType": "uint256",
          "name": "amount",
          "type": "uint256"
        }
      ],
      "name": "PaymentCompleted",
      "type": "event"
    },
    {
      "inputs": [
        {
          "internalType": "address",
          "name": "recieverAddress",
          "type": "address"
        },
        {
          "internalType": "string",
          "name": "paymentId",
          "type": "string"
        },
        {
          "internalType": "uint256",
          "name": "amount",
          "type": "uint256"
        }
      ],
      "name": "addPayment",
      "outputs": [],
      "stateMutability": "nonpayable",
      "type": "function"
    },
    {
      "inputs": [
        {
          "internalType": "string",
          "name": "paymentId",
          "type": "string"
        }
      ],
      "name": "completePayment",
      "outputs": [],
      "stateMutability": "nonpayable",
      "type": "function"
    },
    {
      "inputs": [],
      "name": "name",
      "outputs": [
        {
          "internalType": "string",
          "name": "",
          "type": "string"
        }
      ],
      "stateMutability": "view",
      "type": "function"
    },
    {
      "inputs": [],
      "name": "owner",
      "outputs": [
        {
          "internalType": "address",
          "name": "",
          "type": "address"
        }
      ],
      "stateMutability": "view",
      "type": "function"
    },
    {
      "inputs": [
        {
          "internalType": "string",
          "name": "",
          "type": "string"
        }
      ],
      "name": "payments",
      "outputs": [
        {
          "internalType": "string",
          "name": "paymentId",
          "type": "string"
        },
        {
          "internalType": "uint256",
          "name": "amount",
          "type": "uint256"
        },
        {
          "internalType": "enum Letapay.Status",
          "name": "status",
          "type": "uint8"
        },
        {
          "internalType": "address",
          "name": "senderAddress",
          "type": "address"
        },
        {
          "internalType": "address",
          "name": "recieverAddress",
          "type": "address"
        }
      ],
      "stateMutability": "view",
      "type": "function"
    }
  ],
  "bytecode": "0x60806040526040518060400160405280600781526020017f4c65746170617900000000000000000000000000000000000000000000000000815250600090816200004a91906200036f565b5073874069fa1eb16d44d622f2e0ca25eea172369bc1600260006101000a81548173ffffffffffffffffffffffffffffffffffffffff021916908373ffffffffffffffffffffffffffffffffffffffff160217905550348015620000ad57600080fd5b5033600160006101000a81548173ffffffffffffffffffffffffffffffffffffffff021916908373ffffffffffffffffffffffffffffffffffffffff16021790555062000456565b600081519050919050565b7f4e487b7100000000000000000000000000000000000000000000000000000000600052604160045260246000fd5b7f4e487b7100000000000000000000000000000000000000000000000000000000600052602260045260246000fd5b600060028204905060018216806200017757607f821691505b6020821081036200018d576200018c6200012f565b5b50919050565b60008190508160005260206000209050919050565b60006020601f8301049050919050565b600082821b905092915050565b600060088302620001f77fffffffffffffffffffffffffffffffffffffffffffffffffffffffffffffffff82620001b8565b620002038683620001b8565b95508019841693508086168417925050509392505050565b6000819050919050565b6000819050919050565b6000620002506200024a62000244846200021b565b62000225565b6200021b565b9050919050565b6000819050919050565b6200026c836200022f565b620002846200027b8262000257565b848454620001c5565b825550505050565b600090565b6200029b6200028c565b620002a881848462000261565b505050565b5b81811015620002d057620002c460008262000291565b600181019050620002ae565b5050565b601f8211156200031f57620002e98162000193565b620002f484620001a8565b8101602085101562000304578190505b6200031c6200031385620001a8565b830182620002ad565b50505b505050565b600082821c905092915050565b6000620003446000198460080262000324565b1980831691505092915050565b60006200035f838362000331565b9150826002028217905092915050565b6200037a82620000f5565b67ffffffffffffffff81111562000396576200039562000100565b5b620003a282546200015e565b620003af828285620002d4565b600060209050601f831160018114620003e75760008415620003d2578287015190505b620003de858262000351565b8655506200044e565b601f198416620003f78662000193565b60005b828110156200042157848901518255600182019150602085019450602081019050620003fa565b868310156200044157848901516200043d601f89168262000331565b8355505b6001600288020188555050505b505050505050565b61132c80620004666000396000f3fe608060405234801561001057600080fd5b50600436106100575760003560e01c806306fdde031461005c57806312622c271461007a5780638da5cb5b14610096578063b6b89528146100b4578063f9468713146100d0575b600080fd5b610064610104565b604051610071919061098c565b60405180910390f35b610094600480360381019061008f9190610b8b565b610192565b005b61009e610420565b6040516100ab9190610c09565b60405180910390f35b6100ce60048036038101906100c99190610c24565b610446565b005b6100ea60048036038101906100e59190610c24565b6107db565b6040516100fb959493929190610cf3565b60405180910390f35b6000805461011190610d7c565b80601f016020809104026020016040519081016040528092919081815260200182805461013d90610d7c565b801561018a5780601f1061015f5761010080835404028352916020019161018a565b820191906000526020600020905b81548152906001019060200180831161016d57829003601f168201915b505050505081565b60006040518060a00160405280848152602001838152602001600060018111156101bf576101be610c7c565b5b81526020013373ffffffffffffffffffffffffffffffffffffffff1681526020018573ffffffffffffffffffffffffffffffffffffffff1681525090508060038460405161020d9190610de9565b908152602001604051809103902060008201518160000190816102309190610fac565b506020820151816001015560408201518160020160006101000a81548160ff0219169083600181111561026657610265610c7c565b5b021790555060608201518160020160016101000a81548173ffffffffffffffffffffffffffffffffffffffff021916908373ffffffffffffffffffffffffffffffffffffffff16021790555060808201518160030160006101000a81548173ffffffffffffffffffffffffffffffffffffffff021916908373ffffffffffffffffffffffffffffffffffffffff160217905550905050600260009054906101000a900473ffffffffffffffffffffffffffffffffffffffff1673ffffffffffffffffffffffffffffffffffffffff166323b872dd3330856040518463ffffffff1660e01b815260040161035b9392919061107e565b6020604051808303816000875af115801561037a573d6000803e3d6000fd5b505050506040513d601f19601f8201168201806040525081019061039e91906110ed565b6103dd576040517f08c379a00000000000000000000000000000000000000000000000000000000081526004016103d490611166565b60405180910390fd5b7fdb627f6e9a55a819d8eac28544d56354512521c9ce727dce07eefb9752241b87833386856040516104129493929190611186565b60405180910390a150505050565b600160009054906101000a900473ffffffffffffffffffffffffffffffffffffffff1681565b600160009054906101000a900473ffffffffffffffffffffffffffffffffffffffff1673ffffffffffffffffffffffffffffffffffffffff163373ffffffffffffffffffffffffffffffffffffffff16146104d6576040517f08c379a00000000000000000000000000000000000000000000000000000000081526004016104cd90611244565b60405180910390fd5b600060018111156104ea576104e9610c7c565b5b6003826040516104fa9190610de9565b908152602001604051809103902060020160009054906101000a900460ff16600181111561052b5761052a610c7c565b5b1461056b576040517f08c379a0000000000000000000000000000000000000000000000000000000008152600401610562906112d6565b60405180910390fd5b600260009054906101000a900473ffffffffffffffffffffffffffffffffffffffff1673ffffffffffffffffffffffffffffffffffffffff166323b872dd306003846040516105ba9190610de9565b908152602001604051809103902060030160009054906101000a900473ffffffffffffffffffffffffffffffffffffffff166003856040516105fc9190610de9565b9081526020016040518091039020600101546040518463ffffffff1660e01b815260040161062c9392919061107e565b6020604051808303816000875af115801561064b573d6000803e3d6000fd5b505050506040513d601f19601f8201168201806040525081019061066f91906110ed565b6106ae576040517f08c379a00000000000000000000000000000000000000000000000000000000081526004016106a590611166565b60405180910390fd5b60016003826040516106c09190610de9565b908152602001604051809103902060020160006101000a81548160ff021916908360018111156106f3576106f2610c7c565b5b02179055507f34ddb4977c7a6a68d953dc3ba5fd644201e8a9393f14165b9337c4b21841818d8160038360405161072a9190610de9565b908152602001604051809103902060020160019054906101000a900473ffffffffffffffffffffffffffffffffffffffff1660038460405161076c9190610de9565b908152602001604051809103902060030160009054906101000a900473ffffffffffffffffffffffffffffffffffffffff166003856040516107ae9190610de9565b9081526020016040518091039020600101546040516107d09493929190611186565b60405180910390a150565b60038180516020810182018051848252602083016020850120818352809550505050505060009150905080600001805461081490610d7c565b80601f016020809104026020016040519081016040528092919081815260200182805461084090610d7c565b801561088d5780601f106108625761010080835404028352916020019161088d565b820191906000526020600020905b81548152906001019060200180831161087057829003601f168201915b5050505050908060010154908060020160009054906101000a900460ff16908060020160019054906101000a900473ffffffffffffffffffffffffffffffffffffffff16908060030160009054906101000a900473ffffffffffffffffffffffffffffffffffffffff16905085565b600081519050919050565b600082825260208201905092915050565b60005b8381101561093657808201518184015260208101905061091b565b60008484015250505050565b6000601f19601f8301169050919050565b600061095e826108fc565b6109688185610907565b9350610978818560208601610918565b61098181610942565b840191505092915050565b600060208201905081810360008301526109a68184610953565b905092915050565b6000604051905090565b600080fd5b600080fd5b600073ffffffffffffffffffffffffffffffffffffffff82169050919050565b60006109ed826109c2565b9050919050565b6109fd816109e2565b8114610a0857600080fd5b50565b600081359050610a1a816109f4565b92915050565b600080fd5b600080fd5b7f4e487b7100000000000000000000000000000000000000000000000000000000600052604160045260246000fd5b610a6282610942565b810181811067ffffffffffffffff82111715610a8157610a80610a2a565b5b80604052505050565b6000610a946109ae565b9050610aa08282610a59565b919050565b600067ffffffffffffffff821115610ac057610abf610a2a565b5b610ac982610942565b9050602081019050919050565b82818337600083830152505050565b6000610af8610af384610aa5565b610a8a565b905082815260208101848484011115610b1457610b13610a25565b5b610b1f848285610ad6565b509392505050565b600082601f830112610b3c57610b3b610a20565b5b8135610b4c848260208601610ae5565b91505092915050565b6000819050919050565b610b6881610b55565b8114610b7357600080fd5b50565b600081359050610b8581610b5f565b92915050565b600080600060608486031215610ba457610ba36109b8565b5b6000610bb286828701610a0b565b935050602084013567ffffffffffffffff811115610bd357610bd26109bd565b5b610bdf86828701610b27565b9250506040610bf086828701610b76565b9150509250925092565b610c03816109e2565b82525050565b6000602082019050610c1e6000830184610bfa565b92915050565b600060208284031215610c3a57610c396109b8565b5b600082013567ffffffffffffffff811115610c5857610c576109bd565b5b610c6484828501610b27565b91505092915050565b610c7681610b55565b82525050565b7f4e487b7100000000000000000000000000000000000000000000000000000000600052602160045260246000fd5b60028110610cbc57610cbb610c7c565b5b50565b6000819050610ccd82610cab565b919050565b6000610cdd82610cbf565b9050919050565b610ced81610cd2565b82525050565b600060a0820190508181036000830152610d0d8188610953565b9050610d1c6020830187610c6d565b610d296040830186610ce4565b610d366060830185610bfa565b610d436080830184610bfa565b9695505050505050565b7f4e487b7100000000000000000000000000000000000000000000000000000000600052602260045260246000fd5b60006002820490506001821680610d9457607f821691505b602082108103610da757610da6610d4d565b5b50919050565b600081905092915050565b6000610dc3826108fc565b610dcd8185610dad565b9350610ddd818560208601610918565b80840191505092915050565b6000610df58284610db8565b915081905092915050565b60008190508160005260206000209050919050565b60006020601f8301049050919050565b600082821b905092915050565b600060088302610e627fffffffffffffffffffffffffffffffffffffffffffffffffffffffffffffffff82610e25565b610e6c8683610e25565b95508019841693508086168417925050509392505050565b6000819050919050565b6000610ea9610ea4610e9f84610b55565b610e84565b610b55565b9050919050565b6000819050919050565b610ec383610e8e565b610ed7610ecf82610eb0565b848454610e32565b825550505050565b600090565b610eec610edf565b610ef7818484610eba565b505050565b5b81811015610f1b57610f10600082610ee4565b600181019050610efd565b5050565b601f821115610f6057610f3181610e00565b610f3a84610e15565b81016020851015610f49578190505b610f5d610f5585610e15565b830182610efc565b50505b505050565b600082821c905092915050565b6000610f8360001984600802610f65565b1980831691505092915050565b6000610f9c8383610f72565b9150826002028217905092915050565b610fb5826108fc565b67ffffffffffffffff811115610fce57610fcd610a2a565b5b610fd88254610d7c565b610fe3828285610f1f565b600060209050601f8311600181146110165760008415611004578287015190505b61100e8582610f90565b865550611076565b601f19841661102486610e00565b60005b8281101561104c57848901518255600182019150602085019450602081019050611027565b868310156110695784890151611065601f891682610f72565b8355505b6001600288020188555050505b505050505050565b60006060820190506110936000830186610bfa565b6110a06020830185610bfa565b6110ad6040830184610c6d565b949350505050565b60008115159050919050565b6110ca816110b5565b81146110d557600080fd5b50565b6000815190506110e7816110c1565b92915050565b600060208284031215611103576111026109b8565b5b6000611111848285016110d8565b91505092915050565b7f5472616e73666572206661696c65640000000000000000000000000000000000600082015250565b6000611150600f83610907565b915061115b8261111a565b602082019050919050565b6000602082019050818103600083015261117f81611143565b9050919050565b600060808201905081810360008301526111a08187610953565b90506111af6020830186610bfa565b6111bc6040830185610bfa565b6111c96060830184610c6d565b95945050505050565b7f4f6e6c7920636f6e7472616374206f776e65722063616e206d616b652074686960008201527f73207472616e73616374696f6e00000000000000000000000000000000000000602082015250565b600061122e602d83610907565b9150611239826111d2565b604082019050919050565b6000602082019050818103600083015261125d81611221565b9050919050565b7f5061796d656e74206d757374206265206177616974696e67207061796d656e7460008201527f2073746174757300000000000000000000000000000000000000000000000000602082015250565b60006112c0602783610907565b91506112cb82611264565b604082019050919050565b600060208201905081810360008301526112ef816112b3565b905091905056fea2646970667358221220a7c213afc80e100f40bc59768ddec46c125c5fce020a2b3faed62b59b4335e1b64736f6c63430008180033",
  "linkReferences": {},
  "deployedLinkReferences": {}
}